{"contracts/ToDoList.sol":{"TodoList":{"abi":[{"inputs":[{"internalType":"string","name":"_content","type":"string"},{"internalType":"string","name":"_ipfsHash","type":"string"}],"name":"addTask","outputs":[],"stateMutability":"nonpayable","type":"function"},{"inputs":[{"internalType":"uint256","name":"_index","type":"uint256"}],"name":"completeTask","outputs":[],"stateMutability":"nonpayable","type":"function"},{"inputs":[],"name":"getTasks","outputs":[{"components":[{"internalType":"string","name":"content","type":"string"},{"internalType":"bool","name":"completed","type":"bool"},{"internalType":"string","name":"ipfsHash","type":"string"}],"internalType":"struct TodoList.Task[]","name":"","type":"tuple[]"}],"stateMutability":"view","type":"function"},{"inputs":[{"internalType":"uint256","name":"_index","type":"uint256"}],"name":"removeTask","outputs":[],"stateMutability":"nonpayable","type":"function"},{"inputs":[{"internalType":"uint256","name":"","type":"uint256"}],"name":"tasks","outputs":[{"internalType":"string","name":"content","type":"string"},{"internalType":"bool","name":"completed","type":"bool"},{"internalType":"string","name":"ipfsHash","type":"string"}],"stateMutability":"view","type":"function"}],"evm":{"bytecode":{"linkReferences":{},"object":"608060405234801561001057600080fd5b50610d75806100206000396000f3fe608060405234801561001057600080fd5b50600436106100575760003560e01c806304a87e381461005c5780638d9776721461007a578063b37b1000146100ac578063c3084117146100c8578063e1e29558146100e4575b600080fd5b610064610100565b604051610071919061074e565b60405180910390f35b610094600480360381019061008f91906107ba565b61029e565b6040516100a393929190610840565b60405180910390f35b6100c660048036038101906100c191906109ba565b6103f5565b005b6100e260048036038101906100dd91906107ba565b610490565b005b6100fe60048036038101906100f991906107ba565b6104ec565b005b60606000805480602002602001604051908101604052809291908181526020016000905b82821015610295578382906000526020600020906003020160405180606001604052908160008201805461015790610a61565b80601f016020809104026020016040519081016040528092919081815260200182805461018390610a61565b80156101d05780601f106101a5576101008083540402835291602001916101d0565b820191906000526020600020905b8154815290600101906020018083116101b357829003601f168201915b505050505081526020016001820160009054906101000a900460ff1615151515815260200160028201805461020490610a61565b80601f016020809104026020016040519081016040528092919081815260200182805461023090610a61565b801561027d5780601f106102525761010080835404028352916020019161027d565b820191906000526020600020905b81548152906001019060200180831161026057829003601f168201915b50505050508152505081526020019060010190610124565b50505050905090565b600081815481106102ae57600080fd5b90600052602060002090600302016000915090508060000180546102d190610a61565b80601f01602080910402602001604051908101604052809291908181526020018280546102fd90610a61565b801561034a5780601f1061031f5761010080835404028352916020019161034a565b820191906000526020600020905b81548152906001019060200180831161032d57829003601f168201915b5050505050908060010160009054906101000a900460ff169080600201805461037290610a61565b80601f016020809104026020016040519081016040528092919081815260200182805461039e90610a61565b80156103eb5780601f106103c0576101008083540402835291602001916103eb565b820191906000526020600020905b8154815290600101906020018083116103ce57829003601f168201915b5050505050905083565b6000604051806060016040528084815260200160001515815260200183815250908060018154018082558091505060019003906000526020600020906003020160009091909190915060008201518160000190816104539190610c3e565b5060208201518160010160006101000a81548160ff02191690831515021790555060408201518160020190816104899190610c3e565b5050505050565b600081815481106104a4576104a3610d10565b5b9060005260206000209060030201600080820160006104c3919061052d565b6001820160006101000a81549060ff02191690556002820160006104e7919061052d565b505050565b60016000828154811061050257610501610d10565b5b906000526020600020906003020160010160006101000a81548160ff02191690831515021790555050565b50805461053990610a61565b6000825580601f1061054b575061056a565b601f016020900490600052602060002090810190610569919061056d565b5b50565b5b8082111561058657600081600090555060010161056e565b5090565b600081519050919050565b600082825260208201905092915050565b6000819050602082019050919050565b600081519050919050565b600082825260208201905092915050565b60005b838110156105f05780820151818401526020810190506105d5565b60008484015250505050565b6000601f19601f8301169050919050565b6000610618826105b6565b61062281856105c1565b93506106328185602086016105d2565b61063b816105fc565b840191505092915050565b60008115159050919050565b61065b81610646565b82525050565b6000606083016000830151848203600086015261067e828261060d565b91505060208301516106936020860182610652565b50604083015184820360408601526106ab828261060d565b9150508091505092915050565b60006106c48383610661565b905092915050565b6000602082019050919050565b60006106e48261058a565b6106ee8185610595565b935083602082028501610700856105a6565b8060005b8581101561073c578484038952815161071d85826106b8565b9450610728836106cc565b925060208a01995050600181019050610704565b50829750879550505050505092915050565b6000602082019050818103600083015261076881846106d9565b905092915050565b6000604051905090565b600080fd5b600080fd5b6000819050919050565b61079781610784565b81146107a257600080fd5b50565b6000813590506107b48161078e565b92915050565b6000602082840312156107d0576107cf61077a565b5b60006107de848285016107a5565b91505092915050565b600082825260208201905092915050565b6000610803826105b6565b61080d81856107e7565b935061081d8185602086016105d2565b610826816105fc565b840191505092915050565b61083a81610646565b82525050565b6000606082019050818103600083015261085a81866107f8565b90506108696020830185610831565b818103604083015261087b81846107f8565b9050949350505050565b600080fd5b600080fd5b7f4e487b7100000000000000000000000000000000000000000000000000000000600052604160045260246000fd5b6108c7826105fc565b810181811067ffffffffffffffff821117156108e6576108e561088f565b5b80604052505050565b60006108f9610770565b905061090582826108be565b919050565b600067ffffffffffffffff8211156109255761092461088f565b5b61092e826105fc565b9050602081019050919050565b82818337600083830152505050565b600061095d6109588461090a565b6108ef565b9050828152602081018484840111156109795761097861088a565b5b61098484828561093b565b509392505050565b600082601f8301126109a1576109a0610885565b5b81356109b184826020860161094a565b91505092915050565b600080604083850312156109d1576109d061077a565b5b600083013567ffffffffffffffff8111156109ef576109ee61077f565b5b6109fb8582860161098c565b925050602083013567ffffffffffffffff811115610a1c57610a1b61077f565b5b610a288582860161098c565b9150509250929050565b7f4e487b7100000000000000000000000000000000000000000000000000000000600052602260045260246000fd5b60006002820490506001821680610a7957607f821691505b602082108103610a8c57610a8b610a32565b5b50919050565b60008190508160005260206000209050919050565b60006020601f8301049050919050565b600082821b905092915050565b600060088302610af47fffffffffffffffffffffffffffffffffffffffffffffffffffffffffffffffff82610ab7565b610afe8683610ab7565b95508019841693508086168417925050509392505050565b6000819050919050565b6000610b3b610b36610b3184610784565b610b16565b610784565b9050919050565b6000819050919050565b610b5583610b20565b610b69610b6182610b42565b848454610ac4565b825550505050565b600090565b610b7e610b71565b610b89818484610b4c565b505050565b5b81811015610bad57610ba2600082610b76565b600181019050610b8f565b5050565b601f821115610bf257610bc381610a92565b610bcc84610aa7565b81016020851015610bdb578190505b610bef610be785610aa7565b830182610b8e565b50505b505050565b600082821c905092915050565b6000610c1560001984600802610bf7565b1980831691505092915050565b6000610c2e8383610c04565b9150826002028217905092915050565b610c47826105b6565b67ffffffffffffffff811115610c6057610c5f61088f565b5b610c6a8254610a61565b610c75828285610bb1565b600060209050601f831160018114610ca85760008415610c96578287015190505b610ca08582610c22565b865550610d08565b601f198416610cb686610a92565b60005b82811015610cde57848901518255600182019150602085019450602081019050610cb9565b86831015610cfb5784890151610cf7601f891682610c04565b8355505b6001600288020188555050505b505050505050565b7f4e487b7100000000000000000000000000000000000000000000000000000000600052603260045260246000fdfea2646970667358221220c1320428eed8ab44e9896e20d698dd8f1f27b70d6725968d93bbd7bf7f74f94464736f6c63430008120033","opcodes":"PUSH1 0x80 PUSH1 0x40 MSTORE CALLVALUE DUP1 ISZERO PUSH2 0x10 JUMPI PUSH1 0x0 DUP1 REVERT JUMPDEST POP PUSH2 0xD75 DUP1 PUSH2 0x20 PUSH1 0x0 CODECOPY PUSH1 0x0 RETURN INVALID PUSH1 0x80 PUSH1 0x40 MSTORE CALLVALUE DUP1 ISZERO PUSH2 0x10 JUMPI PUSH1 0x0 DUP1 REVERT JUMPDEST POP PUSH1 0x4 CALLDATASIZE LT PUSH2 0x57 JUMPI PUSH1 0x0 CALLDATALOAD PUSH1 0xE0 SHR DUP1 PUSH4 0x4A87E38 EQ PUSH2 0x5C JUMPI DUP1 PUSH4 0x8D977672 EQ PUSH2 0x7A JUMPI DUP1 PUSH4 0xB37B1000 EQ PUSH2 0xAC JUMPI DUP1 PUSH4 0xC3084117 EQ PUSH2 0xC8 JUMPI DUP1 PUSH4 0xE1E29558 EQ PUSH2 0xE4 JUMPI JUMPDEST PUSH1 0x0 DUP1 REVERT JUMPDEST PUSH2 0x64 PUSH2 0x100 JUMP JUMPDEST PUSH1 0x40 MLOAD PUSH2 0x71 SWAP2 SWAP1 PUSH2 0x74E JUMP JUMPDEST PUSH1 0x40 MLOAD DUP1 SWAP2 SUB SWAP1 RETURN JUMPDEST PUSH2 0x94 PUSH1 0x4 DUP1 CALLDATASIZE SUB DUP2 ADD SWAP1 PUSH2 0x8F SWAP2 SWAP1 PUSH2 0x7BA JUMP JUMPDEST PUSH2 0x29E JUMP JUMPDEST PUSH1 0x40 MLOAD PUSH2 0xA3 SWAP4 SWAP3 SWAP2 SWAP1 PUSH2 0x840 JUMP JUMPDEST PUSH1 0x40 MLOAD DUP1 SWAP2 SUB SWAP1 RETURN JUMPDEST PUSH2 0xC6 PUSH1 0x4 DUP1 CALLDATASIZE SUB DUP2 ADD SWAP1 PUSH2 0xC1 SWAP2 SWAP1 PUSH2 0x9BA JUMP JUMPDEST PUSH2 0x3F5 JUMP JUMPDEST STOP JUMPDEST PUSH2 0xE2 PUSH1 0x4 DUP1 CALLDATASIZE SUB DUP2 ADD SWAP1 PUSH2 0xDD SWAP2 SWAP1 PUSH2 0x7BA JUMP JUMPDEST PUSH2 0x490 JUMP JUMPDEST STOP JUMPDEST PUSH2 0xFE PUSH1 0x4 DUP1 CALLDATASIZE SUB DUP2 ADD SWAP1 PUSH2 0xF9 SWAP2 SWAP1 PUSH2 0x7BA JUMP JUMPDEST PUSH2 0x4EC JUMP JUMPDEST STOP JUMPDEST PUSH1 0x60 PUSH1 0x0 DUP1 SLOAD DUP1 PUSH1 0x20 MUL PUSH1 0x20 ADD PUSH1 0x40 MLOAD SWAP1 DUP2 ADD PUSH1 0x40 MSTORE DUP1 SWAP3 SWAP2 SWAP1 DUP2 DUP2 MSTORE PUSH1 0x20 ADD PUSH1 0x0 SWAP1 JUMPDEST DUP3 DUP3 LT ISZERO PUSH2 0x295 JUMPI DUP4 DUP3 SWAP1 PUSH1 0x0 MSTORE PUSH1 0x20 PUSH1 0x0 KECCAK256 SWAP1 PUSH1 0x3 MUL ADD PUSH1 0x40 MLOAD DUP1 PUSH1 0x60 ADD PUSH1 0x40 MSTORE SWAP1 DUP2 PUSH1 0x0 DUP3 ADD DUP1 SLOAD PUSH2 0x157 SWAP1 PUSH2 0xA61 JUMP JUMPDEST DUP1 PUSH1 0x1F ADD PUSH1 0x20 DUP1 SWAP2 DIV MUL PUSH1 0x20 ADD PUSH1 0x40 MLOAD SWAP1 DUP2 ADD PUSH1 0x40 MSTORE DUP1 SWAP3 SWAP2 SWAP1 DUP2 DUP2 MSTORE PUSH1 0x20 ADD DUP3 DUP1 SLOAD PUSH2 0x183 SWAP1 PUSH2 0xA61 JUMP JUMPDEST DUP1 ISZERO PUSH2 0x1D0 JUMPI DUP1 PUSH1 0x1F LT PUSH2 0x1A5 JUMPI PUSH2 0x100 DUP1 DUP4 SLOAD DIV MUL DUP4 MSTORE SWAP2 PUSH1 0x20 ADD SWAP2 PUSH2 0x1D0 JUMP JUMPDEST DUP3 ADD SWAP2 SWAP1 PUSH1 0x0 MSTORE PUSH1 0x20 PUSH1 0x0 KECCAK256 SWAP1 JUMPDEST DUP2 SLOAD DUP2 MSTORE SWAP1 PUSH1 0x1 ADD SWAP1 PUSH1 0x20 ADD DUP1 DUP4 GT PUSH2 0x1B3 JUMPI DUP3 SWAP1 SUB PUSH1 0x1F AND DUP3 ADD SWAP2 JUMPDEST POP POP POP POP POP DUP2 MSTORE PUSH1 0x20 ADD PUSH1 0x1 DUP3 ADD PUSH1 0x0 SWAP1 SLOAD SWAP1 PUSH2 0x100 EXP SWAP1 DIV PUSH1 0xFF AND ISZERO ISZERO ISZERO ISZERO DUP2 MSTORE PUSH1 0x20 ADD PUSH1 0x2 DUP3 ADD DUP1 SLOAD PUSH2 0x204 SWAP1 PUSH2 0xA61 JUMP JUMPDEST DUP1 PUSH1 0x1F ADD PUSH1 0x20 DUP1 SWAP2 DIV MUL PUSH1 0x20 ADD PUSH1 0x40 MLOAD SWAP1 DUP2 ADD PUSH1 0x40 MSTORE DUP1 SWAP3 SWAP2 SWAP1 DUP2 DUP2 MSTORE PUSH1 0x20 ADD DUP3 DUP1 SLOAD PUSH2 0x230 SWAP1 PUSH2 0xA61 JUMP JUMPDEST DUP1 ISZERO PUSH2 0x27D JUMPI DUP1 PUSH1 0x1F LT PUSH2 0x252 JUMPI PUSH2 0x100 DUP1 DUP4 SLOAD DIV MUL DUP4 MSTORE SWAP2 PUSH1 0x20 ADD SWAP2 PUSH2 0x27D JUMP JUMPDEST DUP3 ADD SWAP2 SWAP1 PUSH1 0x0 MSTORE PUSH1 0x20 PUSH1 0x0 KECCAK256 SWAP1 JUMPDEST DUP2 SLOAD DUP2 MSTORE SWAP1 PUSH1 0x1 ADD SWAP1 PUSH1 0x20 ADD DUP1 DUP4 GT PUSH2 0x260 JUMPI DUP3 SWAP1 SUB PUSH1 0x1F AND DUP3 ADD SWAP2 JUMPDEST POP POP POP POP POP DUP2 MSTORE POP POP DUP2 MSTORE PUSH1 0x20 ADD SWAP1 PUSH1 0x1 ADD SWAP1 PUSH2 0x124 JUMP JUMPDEST POP POP POP POP SWAP1 POP SWAP1 JUMP JUMPDEST PUSH1 0x0 DUP2 DUP2 SLOAD DUP2 LT PUSH2 0x2AE JUMPI PUSH1 0x0 DUP1 REVERT JUMPDEST SWAP1 PUSH1 0x0 MSTORE PUSH1 0x20 PUSH1 0x0 KECCAK256 SWAP1 PUSH1 0x3 MUL ADD PUSH1 0x0 SWAP2 POP SWAP1 POP DUP1 PUSH1 0x0 ADD DUP1 SLOAD PUSH2 0x2D1 SWAP1 PUSH2 0xA61 JUMP JUMPDEST DUP1 PUSH1 0x1F ADD PUSH1 0x20 DUP1 SWAP2 DIV MUL PUSH1 0x20 ADD PUSH1 0x40 MLOAD SWAP1 DUP2 ADD PUSH1 0x40 MSTORE DUP1 SWAP3 SWAP2 SWAP1 DUP2 DUP2 MSTORE PUSH1 0x20 ADD DUP3 DUP1 SLOAD PUSH2 0x2FD SWAP1 PUSH2 0xA61 JUMP JUMPDEST DUP1 ISZERO PUSH2 0x34A JUMPI DUP1 PUSH1 0x1F LT PUSH2 0x31F JUMPI PUSH2 0x100 DUP1 DUP4 SLOAD DIV MUL DUP4 MSTORE SWAP2 PUSH1 0x20 ADD SWAP2 PUSH2 0x34A JUMP JUMPDEST DUP3 ADD SWAP2 SWAP1 PUSH1 0x0 MSTORE PUSH1 0x20 PUSH1 0x0 KECCAK256 SWAP1 JUMPDEST DUP2 SLOAD DUP2 MSTORE SWAP1 PUSH1 0x1 ADD SWAP1 PUSH1 0x20 ADD DUP1 DUP4 GT PUSH2 0x32D JUMPI DUP3 SWAP1 SUB PUSH1 0x1F AND DUP3 ADD SWAP2 JUMPDEST POP POP POP POP POP SWAP1 DUP1 PUSH1 0x1 ADD PUSH1 0x0 SWAP1 SLOAD SWAP1 PUSH2 0x100 EXP SWAP1 DIV PUSH1 0xFF AND SWAP1 DUP1 PUSH1 0x2 ADD DUP1 SLOAD PUSH2 0x372 SWAP1 PUSH2 0xA61 JUMP JUMPDEST DUP1 PUSH1 0x1F ADD PUSH1 0x20 DUP1 SWAP2 DIV MUL PUSH1 0x20 ADD PUSH1 0x40 MLOAD SWAP1 DUP2 ADD PUSH1 0x40 MSTORE DUP1 SWAP3 SWAP2 SWAP1 DUP2 DUP2 MSTORE PUSH1 0x20 ADD DUP3 DUP1 SLOAD PUSH2 0x39E SWAP1 PUSH2 0xA61 JUMP JUMPDEST DUP1 ISZERO PUSH2 0x3EB JUMPI DUP1 PUSH1 0x1F LT PUSH2 0x3C0 JUMPI PUSH2 0x100 DUP1 DUP4 SLOAD DIV MUL DUP4 MSTORE SWAP2 PUSH1 0x20 ADD SWAP2 PUSH2 0x3EB JUMP JUMPDEST DUP3 ADD SWAP2 SWAP1 PUSH1 0x0 MSTORE PUSH1 0x20 PUSH1 0x0 KECCAK256 SWAP1 JUMPDEST DUP2 SLOAD DUP2 MSTORE SWAP1 PUSH1 0x1 ADD SWAP1 PUSH1 0x20 ADD DUP1 DUP4 GT PUSH2 0x3CE JUMPI DUP3 SWAP1 SUB PUSH1 0x1F AND DUP3 ADD SWAP2 JUMPDEST POP POP POP POP POP SWAP1 POP DUP4 JUMP JUMPDEST PUSH1 0x0 PUSH1 0x40 MLOAD DUP1 PUSH1 0x60 ADD PUSH1 0x40 MSTORE DUP1 DUP5 DUP2 MSTORE PUSH1 0x20 ADD PUSH1 0x0 ISZERO ISZERO DUP2 MSTORE PUSH1 0x20 ADD DUP4 DUP2 MSTORE POP SWAP1 DUP1 PUSH1 0x1 DUP2 SLOAD ADD DUP1 DUP3 SSTORE DUP1 SWAP2 POP POP PUSH1 0x1 SWAP1 SUB SWAP1 PUSH1 0x0 MSTORE PUSH1 0x20 PUSH1 0x0 KECCAK256 SWAP1 PUSH1 0x3 MUL ADD PUSH1 0x0 SWAP1 SWAP2 SWAP1 SWAP2 SWAP1 SWAP2 POP PUSH1 0x0 DUP3 ADD MLOAD DUP2 PUSH1 0x0 ADD SWAP1 DUP2 PUSH2 0x453 SWAP2 SWAP1 PUSH2 0xC3E JUMP JUMPDEST POP PUSH1 0x20 DUP3 ADD MLOAD DUP2 PUSH1 0x1 ADD PUSH1 0x0 PUSH2 0x100 EXP DUP2 SLOAD DUP2 PUSH1 0xFF MUL NOT AND SWAP1 DUP4 ISZERO ISZERO MUL OR SWAP1 SSTORE POP PUSH1 0x40 DUP3 ADD MLOAD DUP2 PUSH1 0x2 ADD SWAP1 DUP2 PUSH2 0x489 SWAP2 SWAP1 PUSH2 0xC3E JUMP JUMPDEST POP POP POP POP POP JUMP JUMPDEST PUSH1 0x0 DUP2 DUP2 SLOAD DUP2 LT PUSH2 0x4A4 JUMPI PUSH2 0x4A3 PUSH2 0xD10 JUMP JUMPDEST JUMPDEST SWAP1 PUSH1 0x0 MSTORE PUSH1 0x20 PUSH1 0x0 KECCAK256 SWAP1 PUSH1 0x3 MUL ADD PUSH1 0x0 DUP1 DUP3 ADD PUSH1 0x0 PUSH2 0x4C3 SWAP2 SWAP1 PUSH2 0x52D JUMP JUMPDEST PUSH1 0x1 DUP3 ADD PUSH1 0x0 PUSH2 0x100 EXP DUP2 SLOAD SWAP1 PUSH1 0xFF MUL NOT AND SWAP1 SSTORE PUSH1 0x2 DUP3 ADD PUSH1 0x0 PUSH2 0x4E7 SWAP2 SWAP1 PUSH2 0x52D JUMP JUMPDEST POP POP POP JUMP JUMPDEST PUSH1 0x1 PUSH1 0x0 DUP3 DUP2 SLOAD DUP2 LT PUSH2 0x502 JUMPI PUSH2 0x501 PUSH2 0xD10 JUMP JUMPDEST JUMPDEST SWAP1 PUSH1 0x0 MSTORE PUSH1 0x20 PUSH1 0x0 KECCAK256 SWAP1 PUSH1 0x3 MUL ADD PUSH1 0x1 ADD PUSH1 0x0 PUSH2 0x100 EXP DUP2 SLOAD DUP2 PUSH1 0xFF MUL NOT AND SWAP1 DUP4 ISZERO ISZERO MUL OR SWAP1 SSTORE POP POP JUMP JUMPDEST POP DUP1 SLOAD PUSH2 0x539 SWAP1 PUSH2 0xA61 JUMP JUMPDEST PUSH1 0x0 DUP3 SSTORE DUP1 PUSH1 0x1F LT PUSH2 0x54B JUMPI POP PUSH2 0x56A JUMP JUMPDEST PUSH1 0x1F ADD PUSH1 0x20 SWAP1 DIV SWAP1 PUSH1 0x0 MSTORE PUSH1 0x20 PUSH1 0x0 KECCAK256 SWAP1 DUP2 ADD SWAP1 PUSH2 0x569 SWAP2 SWAP1 PUSH2 0x56D JUMP JUMPDEST JUMPDEST POP JUMP JUMPDEST JUMPDEST DUP1 DUP3 GT ISZERO PUSH2 0x586 JUMPI PUSH1 0x0 DUP2 PUSH1 0x0 SWAP1 SSTORE POP PUSH1 0x1 ADD PUSH2 0x56E JUMP JUMPDEST POP SWAP1 JUMP JUMPDEST PUSH1 0x0 DUP2 MLOAD SWAP1 POP SWAP2 SWAP1 POP JUMP JUMPDEST PUSH1 0x0 DUP3 DUP3 MSTORE PUSH1 0x20 DUP3 ADD SWAP1 POP SWAP3 SWAP2 POP POP JUMP JUMPDEST PUSH1 0x0 DUP2 SWAP1 POP PUSH1 0x20 DUP3 ADD SWAP1 POP SWAP2 SWAP1 POP JUMP JUMPDEST PUSH1 0x0 DUP2 MLOAD SWAP1 POP SWAP2 SWAP1 POP JUMP JUMPDEST PUSH1 0x0 DUP3 DUP3 MSTORE PUSH1 0x20 DUP3 ADD SWAP1 POP SWAP3 SWAP2 POP POP JUMP JUMPDEST PUSH1 0x0 JUMPDEST DUP4 DUP2 LT ISZERO PUSH2 0x5F0 JUMPI DUP1 DUP3 ADD MLOAD DUP2 DUP5 ADD MSTORE PUSH1 0x20 DUP2 ADD SWAP1 POP PUSH2 0x5D5 JUMP JUMPDEST PUSH1 0x0 DUP5 DUP5 ADD MSTORE POP POP POP POP JUMP JUMPDEST PUSH1 0x0 PUSH1 0x1F NOT PUSH1 0x1F DUP4 ADD AND SWAP1 POP SWAP2 SWAP1 POP JUMP JUMPDEST PUSH1 0x0 PUSH2 0x618 DUP3 PUSH2 0x5B6 JUMP JUMPDEST PUSH2 0x622 DUP2 DUP6 PUSH2 0x5C1 JUMP JUMPDEST SWAP4 POP PUSH2 0x632 DUP2 DUP6 PUSH1 0x20 DUP7 ADD PUSH2 0x5D2 JUMP JUMPDEST PUSH2 0x63B DUP2 PUSH2 0x5FC JUMP JUMPDEST DUP5 ADD SWAP2 POP POP SWAP3 SWAP2 POP POP JUMP JUMPDEST PUSH1 0x0 DUP2 ISZERO ISZERO SWAP1 POP SWAP2 SWAP1 POP JUMP JUMPDEST PUSH2 0x65B DUP2 PUSH2 0x646 JUMP JUMPDEST DUP3 MSTORE POP POP JUMP JUMPDEST PUSH1 0x0 PUSH1 0x60 DUP4 ADD PUSH1 0x0 DUP4 ADD MLOAD DUP5 DUP3 SUB PUSH1 0x0 DUP7 ADD MSTORE PUSH2 0x67E DUP3 DUP3 PUSH2 0x60D JUMP JUMPDEST SWAP2 POP POP PUSH1 0x20 DUP4 ADD MLOAD PUSH2 0x693 PUSH1 0x20 DUP7 ADD DUP3 PUSH2 0x652 JUMP JUMPDEST POP PUSH1 0x40 DUP4 ADD MLOAD DUP5 DUP3 SUB PUSH1 0x40 DUP7 ADD MSTORE PUSH2 0x6AB DUP3 DUP3 PUSH2 0x60D JUMP JUMPDEST SWAP2 POP POP DUP1 SWAP2 POP POP SWAP3 SWAP2 POP POP JUMP JUMPDEST PUSH1 0x0 PUSH2 0x6C4 DUP4 DUP4 PUSH2 0x661 JUMP JUMPDEST SWAP1 POP SWAP3 SWAP2 POP POP JUMP JUMPDEST PUSH1 0x0 PUSH1 0x20 DUP3 ADD SWAP1 POP SWAP2 SWAP1 POP JUMP JUMPDEST PUSH1 0x0 PUSH2 0x6E4 DUP3 PUSH2 0x58A JUMP JUMPDEST PUSH2 0x6EE DUP2 DUP6 PUSH2 0x595 JUMP JUMPDEST SWAP4 POP DUP4 PUSH1 0x20 DUP3 MUL DUP6 ADD PUSH2 0x700 DUP6 PUSH2 0x5A6 JUMP JUMPDEST DUP1 PUSH1 0x0 JUMPDEST DUP6 DUP2 LT ISZERO PUSH2 0x73C JUMPI DUP5 DUP5 SUB DUP10 MSTORE DUP2 MLOAD PUSH2 0x71D DUP6 DUP3 PUSH2 0x6B8 JUMP JUMPDEST SWAP5 POP PUSH2 0x728 DUP4 PUSH2 0x6CC JUMP JUMPDEST SWAP3 POP PUSH1 0x20 DUP11 ADD SWAP10 POP POP PUSH1 0x1 DUP2 ADD SWAP1 POP PUSH2 0x704 JUMP JUMPDEST POP DUP3 SWAP8 POP DUP8 SWAP6 POP POP POP POP POP POP SWAP3 SWAP2 POP POP JUMP JUMPDEST PUSH1 0x0 PUSH1 0x20 DUP3 ADD SWAP1 POP DUP2 DUP2 SUB PUSH1 0x0 DUP4 ADD MSTORE PUSH2 0x768 DUP2 DUP5 PUSH2 0x6D9 JUMP JUMPDEST SWAP1 POP SWAP3 SWAP2 POP POP JUMP JUMPDEST PUSH1 0x0 PUSH1 0x40 MLOAD SWAP1 POP SWAP1 JUMP JUMPDEST PUSH1 0x0 DUP1 REVERT JUMPDEST PUSH1 0x0 DUP1 REVERT JUMPDEST PUSH1 0x0 DUP2 SWAP1 POP SWAP2 SWAP1 POP JUMP JUMPDEST PUSH2 0x797 DUP2 PUSH2 0x784 JUMP JUMPDEST DUP2 EQ PUSH2 0x7A2 JUMPI PUSH1 0x0 DUP1 REVERT JUMPDEST POP JUMP JUMPDEST PUSH1 0x0 DUP2 CALLDATALOAD SWAP1 POP PUSH2 0x7B4 DUP2 PUSH2 0x78E JUMP JUMPDEST SWAP3 SWAP2 POP POP JUMP JUMPDEST PUSH1 0x0 PUSH1 0x20 DUP3 DUP5 SUB SLT ISZERO PUSH2 0x7D0 JUMPI PUSH2 0x7CF PUSH2 0x77A JUMP JUMPDEST JUMPDEST PUSH1 0x0 PUSH2 0x7DE DUP5 DUP3 DUP6 ADD PUSH2 0x7A5 JUMP JUMPDEST SWAP2 POP POP SWAP3 SWAP2 POP POP JUMP JUMPDEST PUSH1 0x0 DUP3 DUP3 MSTORE PUSH1 0x20 DUP3 ADD SWAP1 POP SWAP3 SWAP2 POP POP JUMP JUMPDEST PUSH1 0x0 PUSH2 0x803 DUP3 PUSH2 0x5B6 JUMP JUMPDEST PUSH2 0x80D DUP2 DUP6 PUSH2 0x7E7 JUMP JUMPDEST SWAP4 POP PUSH2 0x81D DUP2 DUP6 PUSH1 0x20 DUP7 ADD PUSH2 0x5D2 JUMP JUMPDEST PUSH2 0x826 DUP2 PUSH2 0x5FC JUMP JUMPDEST DUP5 ADD SWAP2 POP POP SWAP3 SWAP2 POP POP JUMP JUMPDEST PUSH2 0x83A DUP2 PUSH2 0x646 JUMP JUMPDEST DUP3 MSTORE POP POP JUMP JUMPDEST PUSH1 0x0 PUSH1 0x60 DUP3 ADD SWAP1 POP DUP2 DUP2 SUB PUSH1 0x0 DUP4 ADD MSTORE PUSH2 0x85A DUP2 DUP7 PUSH2 0x7F8 JUMP JUMPDEST SWAP1 POP PUSH2 0x869 PUSH1 0x20 DUP4 ADD DUP6 PUSH2 0x831 JUMP JUMPDEST DUP2 DUP2 SUB PUSH1 0x40 DUP4 ADD MSTORE PUSH2 0x87B DUP2 DUP5 PUSH2 0x7F8 JUMP JUMPDEST SWAP1 POP SWAP5 SWAP4 POP POP POP POP JUMP JUMPDEST PUSH1 0x0 DUP1 REVERT JUMPDEST PUSH1 0x0 DUP1 REVERT JUMPDEST PUSH32 0x4E487B7100000000000000000000000000000000000000000000000000000000 PUSH1 0x0 MSTORE PUSH1 0x41 PUSH1 0x4 MSTORE PUSH1 0x24 PUSH1 0x0 REVERT JUMPDEST PUSH2 0x8C7 DUP3 PUSH2 0x5FC JUMP JUMPDEST DUP2 ADD DUP2 DUP2 LT PUSH8 0xFFFFFFFFFFFFFFFF DUP3 GT OR ISZERO PUSH2 0x8E6 JUMPI PUSH2 0x8E5 PUSH2 0x88F JUMP JUMPDEST JUMPDEST DUP1 PUSH1 0x40 MSTORE POP POP POP JUMP JUMPDEST PUSH1 0x0 PUSH2 0x8F9 PUSH2 0x770 JUMP JUMPDEST SWAP1 POP PUSH2 0x905 DUP3 DUP3 PUSH2 0x8BE JUMP JUMPDEST SWAP2 SWAP1 POP JUMP JUMPDEST PUSH1 0x0 PUSH8 0xFFFFFFFFFFFFFFFF DUP3 GT ISZERO PUSH2 0x925 JUMPI PUSH2 0x924 PUSH2 0x88F JUMP JUMPDEST JUMPDEST PUSH2 0x92E DUP3 PUSH2 0x5FC JUMP JUMPDEST SWAP1 POP PUSH1 0x20 DUP2 ADD SWAP1 POP SWAP2 SWAP1 POP JUMP JUMPDEST DUP3 DUP2 DUP4 CALLDATACOPY PUSH1 0x0 DUP4 DUP4 ADD MSTORE POP POP POP JUMP JUMPDEST PUSH1 0x0 PUSH2 0x95D PUSH2 0x958 DUP5 PUSH2 0x90A JUMP JUMPDEST PUSH2 0x8EF JUMP JUMPDEST SWAP1 POP DUP3 DUP2 MSTORE PUSH1 0x20 DUP2 ADD DUP5 DUP5 DUP5 ADD GT ISZERO PUSH2 0x979 JUMPI PUSH2 0x978 PUSH2 0x88A JUMP JUMPDEST JUMPDEST PUSH2 0x984 DUP5 DUP3 DUP6 PUSH2 0x93B JUMP JUMPDEST POP SWAP4 SWAP3 POP POP POP JUMP JUMPDEST PUSH1 0x0 DUP3 PUSH1 0x1F DUP4 ADD SLT PUSH2 0x9A1 JUMPI PUSH2 0x9A0 PUSH2 0x885 JUMP JUMPDEST JUMPDEST DUP2 CALLDATALOAD PUSH2 0x9B1 DUP5 DUP3 PUSH1 0x20 DUP7 ADD PUSH2 0x94A JUMP JUMPDEST SWAP2 POP POP SWAP3 SWAP2 POP POP JUMP JUMPDEST PUSH1 0x0 DUP1 PUSH1 0x40 DUP4 DUP6 SUB SLT ISZERO PUSH2 0x9D1 JUMPI PUSH2 0x9D0 PUSH2 0x77A JUMP JUMPDEST JUMPDEST PUSH1 0x0 DUP4 ADD CALLDATALOAD PUSH8 0xFFFFFFFFFFFFFFFF DUP2 GT ISZERO PUSH2 0x9EF JUMPI PUSH2 0x9EE PUSH2 0x77F JUMP JUMPDEST JUMPDEST PUSH2 0x9FB DUP6 DUP3 DUP7 ADD PUSH2 0x98C JUMP JUMPDEST SWAP3 POP POP PUSH1 0x20 DUP4 ADD CALLDATALOAD PUSH8 0xFFFFFFFFFFFFFFFF DUP2 GT ISZERO PUSH2 0xA1C JUMPI PUSH2 0xA1B PUSH2 0x77F JUMP JUMPDEST JUMPDEST PUSH2 0xA28 DUP6 DUP3 DUP7 ADD PUSH2 0x98C JUMP JUMPDEST SWAP2 POP POP SWAP3 POP SWAP3 SWAP1 POP JUMP JUMPDEST PUSH32 0x4E487B7100000000000000000000000000000000000000000000000000000000 PUSH1 0x0 MSTORE PUSH1 0x22 PUSH1 0x4 MSTORE PUSH1 0x24 PUSH1 0x0 REVERT JUMPDEST PUSH1 0x0 PUSH1 0x2 DUP3 DIV SWAP1 POP PUSH1 0x1 DUP3 AND DUP1 PUSH2 0xA79 JUMPI PUSH1 0x7F DUP3 AND SWAP2 POP JUMPDEST PUSH1 0x20 DUP3 LT DUP2 SUB PUSH2 0xA8C JUMPI PUSH2 0xA8B PUSH2 0xA32 JUMP JUMPDEST JUMPDEST POP SWAP2 SWAP1 POP JUMP JUMPDEST PUSH1 0x0 DUP2 SWAP1 POP DUP2 PUSH1 0x0 MSTORE PUSH1 0x20 PUSH1 0x0 KECCAK256 SWAP1 POP SWAP2 SWAP1 POP JUMP JUMPDEST PUSH1 0x0 PUSH1 0x20 PUSH1 0x1F DUP4 ADD DIV SWAP1 POP SWAP2 SWAP1 POP JUMP JUMPDEST PUSH1 0x0 DUP3 DUP3 SHL SWAP1 POP SWAP3 SWAP2 POP POP JUMP JUMPDEST PUSH1 0x0 PUSH1 0x8 DUP4 MUL PUSH2 0xAF4 PUSH32 0xFFFFFFFFFFFFFFFFFFFFFFFFFFFFFFFFFFFFFFFFFFFFFFFFFFFFFFFFFFFFFFFF DUP3 PUSH2 0xAB7 JUMP JUMPDEST PUSH2 0xAFE DUP7 DUP4 PUSH2 0xAB7 JUMP JUMPDEST SWAP6 POP DUP1 NOT DUP5 AND SWAP4 POP DUP1 DUP7 AND DUP5 OR SWAP3 POP POP POP SWAP4 SWAP3 POP POP POP JUMP JUMPDEST PUSH1 0x0 DUP2 SWAP1 POP SWAP2 SWAP1 POP JUMP JUMPDEST PUSH1 0x0 PUSH2 0xB3B PUSH2 0xB36 PUSH2 0xB31 DUP5 PUSH2 0x784 JUMP JUMPDEST PUSH2 0xB16 JUMP JUMPDEST PUSH2 0x784 JUMP JUMPDEST SWAP1 POP SWAP2 SWAP1 POP JUMP JUMPDEST PUSH1 0x0 DUP2 SWAP1 POP SWAP2 SWAP1 POP JUMP JUMPDEST PUSH2 0xB55 DUP4 PUSH2 0xB20 JUMP JUMPDEST PUSH2 0xB69 PUSH2 0xB61 DUP3 PUSH2 0xB42 JUMP JUMPDEST DUP5 DUP5 SLOAD PUSH2 0xAC4 JUMP JUMPDEST DUP3 SSTORE POP POP POP POP JUMP JUMPDEST PUSH1 0x0 SWAP1 JUMP JUMPDEST PUSH2 0xB7E PUSH2 0xB71 JUMP JUMPDEST PUSH2 0xB89 DUP2 DUP5 DUP5 PUSH2 0xB4C JUMP JUMPDEST POP POP POP JUMP JUMPDEST JUMPDEST DUP2 DUP2 LT ISZERO PUSH2 0xBAD JUMPI PUSH2 0xBA2 PUSH1 0x0 DUP3 PUSH2 0xB76 JUMP JUMPDEST PUSH1 0x1 DUP2 ADD SWAP1 POP PUSH2 0xB8F JUMP JUMPDEST POP POP JUMP JUMPDEST PUSH1 0x1F DUP3 GT ISZERO PUSH2 0xBF2 JUMPI PUSH2 0xBC3 DUP2 PUSH2 0xA92 JUMP JUMPDEST PUSH2 0xBCC DUP5 PUSH2 0xAA7 JUMP JUMPDEST DUP2 ADD PUSH1 0x20 DUP6 LT ISZERO PUSH2 0xBDB JUMPI DUP2 SWAP1 POP JUMPDEST PUSH2 0xBEF PUSH2 0xBE7 DUP6 PUSH2 0xAA7 JUMP JUMPDEST DUP4 ADD DUP3 PUSH2 0xB8E JUMP JUMPDEST POP POP JUMPDEST POP POP POP JUMP JUMPDEST PUSH1 0x0 DUP3 DUP3 SHR SWAP1 POP SWAP3 SWAP2 POP POP JUMP JUMPDEST PUSH1 0x0 PUSH2 0xC15 PUSH1 0x0 NOT DUP5 PUSH1 0x8 MUL PUSH2 0xBF7 JUMP JUMPDEST NOT DUP1 DUP4 AND SWAP2 POP POP SWAP3 SWAP2 POP POP JUMP JUMPDEST PUSH1 0x0 PUSH2 0xC2E DUP4 DUP4 PUSH2 0xC04 JUMP JUMPDEST SWAP2 POP DUP3 PUSH1 0x2 MUL DUP3 OR SWAP1 POP SWAP3 SWAP2 POP POP JUMP JUMPDEST PUSH2 0xC47 DUP3 PUSH2 0x5B6 JUMP JUMPDEST PUSH8 0xFFFFFFFFFFFFFFFF DUP2 GT ISZERO PUSH2 0xC60 JUMPI PUSH2 0xC5F PUSH2 0x88F JUMP JUMPDEST JUMPDEST PUSH2 0xC6A DUP3 SLOAD PUSH2 0xA61 JUMP JUMPDEST PUSH2 0xC75 DUP3 DUP3 DUP6 PUSH2 0xBB1 JUMP JUMPDEST PUSH1 0x0 PUSH1 0x20 SWAP1 POP PUSH1 0x1F DUP4 GT PUSH1 0x1 DUP2 EQ PUSH2 0xCA8 JUMPI PUSH1 0x0 DUP5 ISZERO PUSH2 0xC96 JUMPI DUP3 DUP8 ADD MLOAD SWAP1 POP JUMPDEST PUSH2 0xCA0 DUP6 DUP3 PUSH2 0xC22 JUMP JUMPDEST DUP7 SSTORE POP PUSH2 0xD08 JUMP JUMPDEST PUSH1 0x1F NOT DUP5 AND PUSH2 0xCB6 DUP7 PUSH2 0xA92 JUMP JUMPDEST PUSH1 0x0 JUMPDEST DUP3 DUP2 LT ISZERO PUSH2 0xCDE JUMPI DUP5 DUP10 ADD MLOAD DUP3 SSTORE PUSH1 0x1 DUP3 ADD SWAP2 POP PUSH1 0x20 DUP6 ADD SWAP5 POP PUSH1 0x20 DUP2 ADD SWAP1 POP PUSH2 0xCB9 JUMP JUMPDEST DUP7 DUP4 LT ISZERO PUSH2 0xCFB JUMPI DUP5 DUP10 ADD MLOAD PUSH2 0xCF7 PUSH1 0x1F DUP10 AND DUP3 PUSH2 0xC04 JUMP JUMPDEST DUP4 SSTORE POP JUMPDEST PUSH1 0x1 PUSH1 0x2 DUP9 MUL ADD DUP9 SSTORE POP POP POP JUMPDEST POP POP POP POP POP POP JUMP JUMPDEST PUSH32 0x4E487B7100000000000000000000000000000000000000000000000000000000 PUSH1 0x0 MSTORE PUSH1 0x32 PUSH1 0x4 MSTORE PUSH1 0x24 PUSH1 0x0 REVERT INVALID LOG2 PUSH5 0x6970667358 0x22 SLT KECCAK256 0xC1 ORIGIN DIV 0x28 0xEE 0xD8 0xAB PREVRANDAO 0xE9 DUP10 PUSH15 0x20D698DD8F1F27B70D6725968D93BB 0xD7 0xBF PUSH32 0x74F94464736F6C63430008120033000000000000000000000000000000000000 "},"methodIdentifiers":{"addTask(string,string)":"b37b1000","completeTask(uint256)":"e1e29558","getTasks()":"04a87e38","removeTask(uint256)":"c3084117","tasks(uint256)":"8d977672"}}}}}