{
  "_format": "hh-sol-artifact-1",
  "contractName": "TodoList",
  "sourceName": "contracts/ToDoList.sol",
  "abi": [
    {
      "inputs": [
        {
          "internalType": "string",
          "name": "_content",
          "type": "string"
        },
        {
          "internalType": "string",
          "name": "_ipfsHash",
          "type": "string"
        }
      ],
      "name": "addTask",
      "outputs": [],
      "stateMutability": "nonpayable",
      "type": "function"
    },
    {
      "inputs": [
        {
          "internalType": "uint256",
          "name": "_index",
          "type": "uint256"
        }
      ],
      "name": "completeTask",
      "outputs": [],
      "stateMutability": "nonpayable",
      "type": "function"
    },
    {
      "inputs": [],
      "name": "getTasks",
      "outputs": [
        {
          "components": [
            {
              "internalType": "string",
              "name": "content",
              "type": "string"
            },
            {
              "internalType": "bool",
              "name": "completed",
              "type": "bool"
            },
            {
              "internalType": "string",
              "name": "ipfsHash",
              "type": "string"
            }
          ],
          "internalType": "struct TodoList.Task[]",
          "name": "",
          "type": "tuple[]"
        }
      ],
      "stateMutability": "view",
      "type": "function"
    },
    {
      "inputs": [
        {
          "internalType": "uint256",
          "name": "_index",
          "type": "uint256"
        }
      ],
      "name": "removeTask",
      "outputs": [],
      "stateMutability": "nonpayable",
      "type": "function"
    },
    {
      "inputs": [
        {
          "internalType": "uint256",
          "name": "",
          "type": "uint256"
        }
      ],
      "name": "tasks",
      "outputs": [
        {
          "internalType": "string",
          "name": "content",
          "type": "string"
        },
        {
          "internalType": "bool",
          "name": "completed",
          "type": "bool"
        },
        {
          "internalType": "string",
          "name": "ipfsHash",
          "type": "string"
        }
      ],
      "stateMutability": "view",
      "type": "function"
    }
  ],
  "bytecode": "0x608060405234801561001057600080fd5b50610d75806100206000396000f3fe608060405234801561001057600080fd5b50600436106100575760003560e01c806304a87e381461005c5780638d9776721461007a578063b37b1000146100ac578063c3084117146100c8578063e1e29558146100e4575b600080fd5b610064610100565b604051610071919061074e565b60405180910390f35b610094600480360381019061008f91906107ba565b61029e565b6040516100a393929190610840565b60405180910390f35b6100c660048036038101906100c191906109ba565b6103f5565b005b6100e260048036038101906100dd91906107ba565b610490565b005b6100fe60048036038101906100f991906107ba565b6104ec565b005b60606000805480602002602001604051908101604052809291908181526020016000905b82821015610295578382906000526020600020906003020160405180606001604052908160008201805461015790610a61565b80601f016020809104026020016040519081016040528092919081815260200182805461018390610a61565b80156101d05780601f106101a5576101008083540402835291602001916101d0565b820191906000526020600020905b8154815290600101906020018083116101b357829003601f168201915b505050505081526020016001820160009054906101000a900460ff1615151515815260200160028201805461020490610a61565b80601f016020809104026020016040519081016040528092919081815260200182805461023090610a61565b801561027d5780601f106102525761010080835404028352916020019161027d565b820191906000526020600020905b81548152906001019060200180831161026057829003601f168201915b50505050508152505081526020019060010190610124565b50505050905090565b600081815481106102ae57600080fd5b90600052602060002090600302016000915090508060000180546102d190610a61565b80601f01602080910402602001604051908101604052809291908181526020018280546102fd90610a61565b801561034a5780601f1061031f5761010080835404028352916020019161034a565b820191906000526020600020905b81548152906001019060200180831161032d57829003601f168201915b5050505050908060010160009054906101000a900460ff169080600201805461037290610a61565b80601f016020809104026020016040519081016040528092919081815260200182805461039e90610a61565b80156103eb5780601f106103c0576101008083540402835291602001916103eb565b820191906000526020600020905b8154815290600101906020018083116103ce57829003601f168201915b5050505050905083565b6000604051806060016040528084815260200160001515815260200183815250908060018154018082558091505060019003906000526020600020906003020160009091909190915060008201518160000190816104539190610c3e565b5060208201518160010160006101000a81548160ff02191690831515021790555060408201518160020190816104899190610c3e565b5050505050565b600081815481106104a4576104a3610d10565b5b9060005260206000209060030201600080820160006104c3919061052d565b6001820160006101000a81549060ff02191690556002820160006104e7919061052d565b505050565b60016000828154811061050257610501610d10565b5b906000526020600020906003020160010160006101000a81548160ff02191690831515021790555050565b50805461053990610a61565b6000825580601f1061054b575061056a565b601f016020900490600052602060002090810190610569919061056d565b5b50565b5b8082111561058657600081600090555060010161056e565b5090565b600081519050919050565b600082825260208201905092915050565b6000819050602082019050919050565b600081519050919050565b600082825260208201905092915050565b60005b838110156105f05780820151818401526020810190506105d5565b60008484015250505050565b6000601f19601f8301169050919050565b6000610618826105b6565b61062281856105c1565b93506106328185602086016105d2565b61063b816105fc565b840191505092915050565b60008115159050919050565b61065b81610646565b82525050565b6000606083016000830151848203600086015261067e828261060d565b91505060208301516106936020860182610652565b50604083015184820360408601526106ab828261060d565b9150508091505092915050565b60006106c48383610661565b905092915050565b6000602082019050919050565b60006106e48261058a565b6106ee8185610595565b935083602082028501610700856105a6565b8060005b8581101561073c578484038952815161071d85826106b8565b9450610728836106cc565b925060208a01995050600181019050610704565b50829750879550505050505092915050565b6000602082019050818103600083015261076881846106d9565b905092915050565b6000604051905090565b600080fd5b600080fd5b6000819050919050565b61079781610784565b81146107a257600080fd5b50565b6000813590506107b48161078e565b92915050565b6000602082840312156107d0576107cf61077a565b5b60006107de848285016107a5565b91505092915050565b600082825260208201905092915050565b6000610803826105b6565b61080d81856107e7565b935061081d8185602086016105d2565b610826816105fc565b840191505092915050565b61083a81610646565b82525050565b6000606082019050818103600083015261085a81866107f8565b90506108696020830185610831565b818103604083015261087b81846107f8565b9050949350505050565b600080fd5b600080fd5b7f4e487b7100000000000000000000000000000000000000000000000000000000600052604160045260246000fd5b6108c7826105fc565b810181811067ffffffffffffffff821117156108e6576108e561088f565b5b80604052505050565b60006108f9610770565b905061090582826108be565b919050565b600067ffffffffffffffff8211156109255761092461088f565b5b61092e826105fc565b9050602081019050919050565b82818337600083830152505050565b600061095d6109588461090a565b6108ef565b9050828152602081018484840111156109795761097861088a565b5b61098484828561093b565b509392505050565b600082601f8301126109a1576109a0610885565b5b81356109b184826020860161094a565b91505092915050565b600080604083850312156109d1576109d061077a565b5b600083013567ffffffffffffffff8111156109ef576109ee61077f565b5b6109fb8582860161098c565b925050602083013567ffffffffffffffff811115610a1c57610a1b61077f565b5b610a288582860161098c565b9150509250929050565b7f4e487b7100000000000000000000000000000000000000000000000000000000600052602260045260246000fd5b60006002820490506001821680610a7957607f821691505b602082108103610a8c57610a8b610a32565b5b50919050565b60008190508160005260206000209050919050565b60006020601f8301049050919050565b600082821b905092915050565b600060088302610af47fffffffffffffffffffffffffffffffffffffffffffffffffffffffffffffffff82610ab7565b610afe8683610ab7565b95508019841693508086168417925050509392505050565b6000819050919050565b6000610b3b610b36610b3184610784565b610b16565b610784565b9050919050565b6000819050919050565b610b5583610b20565b610b69610b6182610b42565b848454610ac4565b825550505050565b600090565b610b7e610b71565b610b89818484610b4c565b505050565b5b81811015610bad57610ba2600082610b76565b600181019050610b8f565b5050565b601f821115610bf257610bc381610a92565b610bcc84610aa7565b81016020851015610bdb578190505b610bef610be785610aa7565b830182610b8e565b50505b505050565b600082821c905092915050565b6000610c1560001984600802610bf7565b1980831691505092915050565b6000610c2e8383610c04565b9150826002028217905092915050565b610c47826105b6565b67ffffffffffffffff811115610c6057610c5f61088f565b5b610c6a8254610a61565b610c75828285610bb1565b600060209050601f831160018114610ca85760008415610c96578287015190505b610ca08582610c22565b865550610d08565b601f198416610cb686610a92565b60005b82811015610cde57848901518255600182019150602085019450602081019050610cb9565b86831015610cfb5784890151610cf7601f891682610c04565b8355505b6001600288020188555050505b505050505050565b7f4e487b7100000000000000000000000000000000000000000000000000000000600052603260045260246000fdfea2646970667358221220c1320428eed8ab44e9896e20d698dd8f1f27b70d6725968d93bbd7bf7f74f94464736f6c63430008120033",
  "linkReferences": {},
  "deployedLinkReferences": {}
}